{
  "contractName": "StorageV2",
  "abi": [
    {
      "inputs": [
        {
          "internalType": "uint256",
          "name": "num",
          "type": "uint256"
        }
      ],
      "name": "store2",
      "outputs": [],
      "stateMutability": "nonpayable",
      "type": "function"
    },
    {
      "inputs": [],
      "name": "retrieve",
      "outputs": [
        {
          "internalType": "uint256",
          "name": "",
          "type": "uint256"
        }
      ],
      "stateMutability": "view",
      "type": "function"
    },
    {
      "inputs": [],
      "name": "increment",
      "outputs": [],
      "stateMutability": "nonpayable",
      "type": "function"
    }
  ],
  "bytecode": "0x608060405234801561001057600080fd5b506101f5806100206000396000f3fe608060405234801561001057600080fd5b50600436106100415760003560e01c806327f151f5146100465780632e64cec114610062578063d09de08a14610080575b600080fd5b610060600480360381019061005b91906100f1565b61008a565b005b61006a610094565b604051610077919061012d565b60405180910390f35b61008861009d565b005b8060008190555050565b60008054905090565b6000808154809291906100af90610177565b9190505550565b600080fd5b6000819050919050565b6100ce816100bb565b81146100d957600080fd5b50565b6000813590506100eb816100c5565b92915050565b600060208284031215610107576101066100b6565b5b6000610115848285016100dc565b91505092915050565b610127816100bb565b82525050565b6000602082019050610142600083018461011e565b92915050565b7f4e487b7100000000000000000000000000000000000000000000000000000000600052601160045260246000fd5b6000610182826100bb565b91507fffffffffffffffffffffffffffffffffffffffffffffffffffffffffffffffff82036101b4576101b3610148565b5b60018201905091905056fea26469706673582212205ad609963f613c36d4915507db9d7a8bf028169059dc529925b6cd2baa9e121d64736f6c63430008110033",
  "immutableReferences": {},
  "source": "// SPDX-License-Identifier: GPL-3.0\n\npragma solidity 0.8.17;\n\ncontract StorageV2 {\n\n    uint256 number;\n\n    function store2(uint256 num) public {\n\n        number = num;\n\n    }\n\n    function retrieve() public view returns (uint256){\n\n        return number;\n\n    }\n\n    function increment() public {\n\n        number++;\n\n    }\n\n}",
  "sourcePath": "/Users/jeremyn/Documents/GitHub/Developpeur-Ethereum-Template/upgrade/contracts/StorageV2.sol",
  "compiler": {
    "name": "solc",
    "version": "0.8.17+commit.8df45f5f.Emscripten.clang"
  },
  "schemaVersion": "3.4.11",
  "updatedAt": "2023-03-28T18:30:24.582Z",
  "devdoc": {
    "kind": "dev",
    "methods": {},
    "version": 1
  },
  "userdoc": {
    "kind": "user",
    "methods": {},
    "version": 1
  }
}